:100000000C9434000C943E000C943E000C943E0082
:100010000C943E000C943E000C943E000C943E0068
:100020000C943E000C943E000C943E000C943E0058
:100030000C943E000C943E000C943E000C943E0048
:100040000C943E000C943E000C943E000C943E0038
:100050000C943E000C943E000C943E000C943E0028
:100060000C943E000C943E0011241FBECFEFD8E04C
:10007000DEBFCDBF0E9440000C9484000C940000B1
:10008000DF93CF93CDB7DEB7A4E2B0E0E4E2F0E0D7
:10009000808180628C93E7E4F0E08AEF8083E4E47F
:1000A000F0E082E08083E5E4F0E085E08083EEE646
:1000B000F0E082E080837894FFCF1F920F920FB61A
:1000C0000F9211248F939F93AF93BF93EF93FF935E
:1000D000DF93CF93CDB7DEB7E6E4F0E01082A5E280
:1000E000B0E0E5E2F0E0908180E289278C93CF9147
:1000F000DF91FF91EF91BF91AF919F918F910F9001
:0C0100000FBE0F901F901895F894FFCFD1
:00000001FF
