:100000000C9434000C9449000C9449000C94490061
:100010000C9449000C9449000C9449000C9449003C
:100020000C9449000C9449000C9449000C9449002C
:100030000C9449000C9449000C9449000C9449001C
:100040000C9449000C9449000C9449000C9449000C
:100050000C9449000C9449000C9449000C944900FC
:100060000C9449000C94490011241FBECFEFD8E036
:10007000DEBFCDBF11E0A0E0B1E0E4E8F0E102C0F6
:1000800005900D92AE31B107D9F70E944B000C9448
:1000900040080C940000DF93CF93CDB7DEB7C35474
:1000A000D0400FB6F894DEBF0FBECDBFCE0189960B
:1000B00021969FAF8EAF2197E0E0F1E02396FFAF4E
:1000C000EEAF2397F6E12496FFAF24972396EEAD8B
:1000D000FFAD2397008023968EAD9FAD23970196A9
:1000E00023969FAF8EAF23972196EEADFFAD21975C
:1000F000008221968EAD9FAD2197019621969FAFEC
:100100008EAF219724969FAD2497915024969FAF50
:1001100024972496EFAD2497EE23C1F618A686E126
:100120008FA3E4E2F0E08FEF8083AAE2B0E0EAE29E
:10013000F0E0808181608C93AAE2B0E0EAE2F0E036
:1001400080818D7F8C9354C198A58FA1981708F05A
:100150004EC1ABE2B0E0EBE2F0E080818E7F8C93A9
:10016000A5E2B0E088A5282F30E0CE018996FC01F9
:10017000E20FF31F80818C9388A58F5F88A780E0B2
:1001800090E0A0E2B1E48BA39CA3ADA3BEA36BA1BE
:100190007CA18DA19EA12BEA3AEA4AEA5EE30E9485
:1001A000D903DC01CB018F8F98A3A9A3BAA36F8DCC
:1001B00078A189A19AA120E030E040E85FE30E94A5
:1001C000DF0588231CF481E08E8F91C06F8D78A1AC
:1001D00089A19AA120E030E04FE753E40E947F0517
:1001E00018160CF07BC06BA17CA18DA19EA120E014
:1001F00030E04AE754E40E94D304DC01CB018A8F4B
:100200009B8FAC8FBD8F6A8D7B8D8C8D9D8D20E0FB
:1002100030E04AE753E40E94D903DC01CB018E8B26
:100220009F8BA88FB98F6E897F89888D998D20E0EB
:1002300030E040E85FE30E94DF0588232CF481E092
:1002400090E09D8B8C8B3FC06E897F89888D998DC6
:1002500020E03FEF4FE757E40E947F0518164CF56A
:100260006A8D7B8D8C8D9D8D20E030E040E251E4E5
:100270000E94D903DC01CB01BC01CD010E94030225
:10028000DC01CB019D8B8C8B0FC089E190E09B8BB7
:100290008A8B8A899B890197F1F79B8B8A8B8C8942
:1002A0009D8901979D8B8C8B8C899D89009769F71F
:1002B00024C06E897F89888D998D0E940302DC019C
:1002C000CB019D8B8C8B8C899D89998B888B8889A0
:1002D00099890197F1F7998B888B0FC06F8D78A161
:1002E00089A19AA10E940302DC01CB018E8F8E8D21
:1002F0008F878F858A95F1F78F87ABE2B0E0EBE2CD
:10030000F0E0808181608C9380E090E0AAEFB3E41C
:100310008B879C87AD87BE876B857C858D859E8509
:1003200020E030E04AE753E40E94D903DC01CB012E
:100330008F839887A987BA876F81788589859A8501
:1003400020E030E040E85FE30E94DF0588232CF4E2
:1003500081E090E09E838D833FC06F8178858985A1
:100360009A8520E03FEF4FE757E40E947F0518167B
:100370004CF56B857C858D859E8520E030E040E2E4
:1003800051E40E94D903DC01CB01BC01CD010E94E4
:100390000302DC01CB019E838D830FC089E190E0D5
:1003A0009C838B838B819C810197F1F79C838B834A
:1003B0008D819E8101979E838D838D819E81009783
:1003C00069F716C06F81788589859A850E94030236
:1003D000DC01CB019E838D838D819E819A838983ED
:1003E00089819A810197F1F79A83898301C018A6C0
:1003F000E9E2F0E08081882F90E0827090700097B1
:1004000009F4A2CEF5CFEF92FF920F931F937B01D9
:100410008C0120E030E040E05FE40E94AF058823DB
:100420008CF0C801B70120E030E040E05FE40E94BA
:100430007B030E940F069B01AC01205030404040DE
:10044000504806C0C801B7010E940F069B01AC01CD
:10045000B901CA011F910F91FF90EF900895A0E09C
:10046000B0E0E5E3F2E00C940908DC012B01FA01AD
:100470009C91923008F439C1EB018881823008F4F4
:1004800033C1943069F4843009F02FC111969C91E6
:1004900011978981981709F428C1A6E1B1E025C117
:1004A000843009F421C18230A9F4923009F01DC1D1
:1004B0009A01AD0188E0EA010990AE01E9010992D3
:1004C0009E018150C1F7E201898111969C91892397
:1004D000818308C1923009F407C112962D903C9097
:1004E0001397EB018A819B811496AD90BD90CD90BE
:1004F000DC901797EC80FD800E811F819101281BF5
:10050000390BB90137FF04C066277727621B730BCD
:10051000603271050CF061C0121613066CF53701DC
:100520004801062E04C096948794779467940A94A1
:10053000D2F721E030E040E050E004C0220F331F4A
:10054000441F551F6A95D2F721503040404050401B
:100550002E213F214023512321153105410551050D
:1005600021F021E030E040E050E079018A01E62806
:10057000F728082919293CC0232BD1F1260E371E54
:1005800035014601062E04C09694879477946794AB
:100590000A94D2F721E030E040E050E004C0220F9E
:1005A000331F441F551F6A95D2F7215030404040F9
:1005B00050402A213B214C215D2121153105410567
:1005C000510521F021E030E040E050E059016A019E
:1005D000A628B728C828D9280BC0821593052CF067
:1005E0001C01AA24BB24650103C0EE24FF2487015B
:1005F00011969C91D20111968C91981709F445C0DF
:10060000992339F0A80197012A193B094C095D0982
:1006100006C0A60195012E193F09400B510B57FD4D
:1006200008C0118233822282248335834683578314
:100630001DC081E081833382228288279927DC01D3
:10064000821B930BA40BB50B84839583A683B7837E
:100650000DC0220F331F441F551F2483358346834B
:10066000578382819381019793838283248135818B
:1006700046815781DA01C9010197A109B1098F5F4C
:100680009F4FAF4FBF4328F30BC091833382228229
:10069000EA0CFB1C0C1D1D1DE482F58206831783EA
:1006A00083E08083248135814681578157FF1AC0BA
:1006B000C901AA2797FDA095BA2F81709070A070EC
:1006C000B0705695479537952795822B932BA42B81
:1006D000B52B84839583A683B7838281938101960A
:1006E00093838283DF0101C0D201CD01CDB7DEB794
:1006F000E2E10C942508A0E2B0E0E1E8F3E00C941C
:10070000150869837A838B839C832D833E834F8373
:100710005887E9E0EE2EF12CEC0EFD1ECE0101967D
:10072000B7010E9438078E010F5E1F4FCE0105965C
:10073000B8010E9438078A8991E089278A8BC7010E
:10074000B801AE01475E5F4F0E942F020E94630610
:10075000A096E6E00C943108A0E2B0E0E2EBF3E012
:100760000C94150869837A838B839C832D833E8345
:100770004F835887F9E0EF2EF12CEC0EFD1ECE01D1
:100780000196B7010E9438078E010F5E1F4FCE0100
:100790000596B8010E943807C701B801AE01475E4F
:1007A0005F4F0E942F020E946306A096E6E00C9421
:1007B0003108A0E2B0E0EFEDF3E00C9409086983A2
:1007C0007A838B839C832D833E834F835887CE010E
:1007D0000196BE01675F7F4F0E943807CE010596E4
:1007E000BE016F5E7F4F0E9438079985923088F076
:1007F00089898230C8F0943019F4823051F404C0F1
:10080000843029F4923081F486E191E0C6C09230C0
:1008100049F420E09A858A89981321E02A87CE013D
:100820000996BBC0823049F420E09A858A899813E2
:1008300021E02A8BCE014196B0C02D843E844F84A6
:1008400058886D887E888F88988CEE24FF248701D5
:10085000AA24BB24650140E050E060E070E0E0E0E5
:10086000F0E0C10181709070892BE9F0E60CF71C73
:10087000081D191D9A01AB012A0D3B1D4C1D5D1D64
:1008800080E090E0A0E0B0E0E614F7040805190568
:1008900020F481E090E0A0E0B0E0BA01A901480FA7
:1008A000591F6A1F7B1FAA0CBB1CCC1CDD1C97FEAA
:1008B00008C081E090E0A0E0B0E0A82AB92ACA2AE6
:1008C000DB2A3196E032F10549F0660C771C881C72
:1008D000991C5694479437942794C3CFFA85EA8994
:1008E0002B893C898B859C85280F391F2E5F3F4FB4
:1008F00017C0CA0181709070892B61F01695079519
:10090000F794E79480E090E0A0E0B0E8E82AF92AC4
:100910000A2B1B2B76956795579547952F5F3F4F71
:1009200077FDE7CF0CC0440F551F661F771F17FDDB
:100930004160EE0CFF1C001F111F21503040403061
:1009400090E0590790E0690790E4790760F32B8FF6
:100950003C8FDB01CA018F779070A070B07080343B
:100960009105A105B10561F447FD0AC0E114F10448
:100970000105110529F0405C5F4F6F4F7F4F4078B4
:100980001A8EFE1711F081E08A8F4D8F5E8F6F8F68
:1009900078A383E0898FCE0149960E946306A096D2
:1009A000E2E10C942508A8E1B0E0E9EDF4E00C9454
:1009B000110869837A838B839C832D833E834F83C5
:1009C0005887B9E0EB2EF12CEC0EFD1ECE010196FE
:1009D000B7010E9438078E010F5E1F4FCE010596AA
:1009E000B8010E9438072985223008F47EC0398971
:1009F000323010F4B8017CC08A859A8989278A87A9
:100A0000243011F0223031F4231709F06EC066E172
:100A100071E06EC0343039F41D861E861F86188A38
:100A20001C861B8604C0323021F484E08987B7011C
:100A30005FC02B853C858B899C89281B390B3C87A3
:100A40002B87ED84FE840F851889AD88BE88CF88FA
:100A5000D88CEA14FB040C051D0540F4EE0CFF1CB9
:100A6000001F111F215030403C872B8720E030E0D1
:100A700040E050E080E090E0A0E0B0E460E070E0B2
:100A8000EA14FB040C051D0540F0282B392B4A2BDA
:100A90005B2BEA18FB080C091D09B695A7959795DD
:100AA0008795EE0CFF1C001F111F6F5F7F4F6F318A
:100AB000710531F7DA01C9018F779070A070B070BD
:100AC00080349105A105B10561F427FD0AC0E11448
:100AD000F1040105110529F0205C3F4F4F4F5F4F96
:100AE00020782D873E874F87588BBE01675F7F4FE9
:100AF000CB010E9463066896EAE00C942D08A8E1F9
:100B0000B0E0E5E8F5E00C94150869837A838B83FF
:100B10009C832D833E834F83588789E0E82EF12CF8
:100B2000EC0EFD1ECE010196B7010E9438078E0122
:100B30000F5E1F4FCE010596B8010E9438078985C8
:100B4000823040F08989823028F0C701B8010E94C4
:100B5000B00701C08FEF6896E6E00C943108A8E179
:100B6000B0E0E5EBF5E00C94150869837A838B839C
:100B70009C832D833E834F83588789E0E82EF12C98
:100B8000EC0EFD1ECE010196B7010E9438078E01C2
:100B90000F5E1F4FCE010596B8010E943807898568
:100BA000823040F08989823028F0C701B8010E9464
:100BB000B00701C08FEF6896E6E00C943108A8E119
:100BC000B0E0E5EEF5E00C94150869837A838B8339
:100BD0009C832D833E834F83588789E0E82EF12C38
:100BE000EC0EFD1ECE010196B7010E9438078E0162
:100BF0000F5E1F4FCE010596B8010E943807898508
:100C0000823040F08989823028F0C701B8010E9403
:100C1000B00701C081E06896E6E00C943108ACE0D2
:100C2000B0E0E5E1F6E00C94190869837A838B83E0
:100C30009C83CE010196BE016B5F7F4F0E943807F7
:100C40008D81823061F1823050F1843021F48E81C7
:100C5000882351F12EC02F81388537FD20C06E8149
:100C60002F3131051CF06623F9F023C08EE190E0AE
:100C7000821B930B29853A854B855C8504C056956C
:100C80004795379527958A95D2F76623B1F0509509
:100C90004095309521953F4F4F4F5F4F0EC020E05C
:100CA00030E040E050E009C02FEF3FEF4FEF5FE74B
:100CB00004C020E030E040E050E8B901CA012C96C1
:100CC000E2E00C943508DF92EF92FF920F931F93AE
:100CD000FC01E480F58006811781D180808182301B
:100CE00048F480E090E0A0E1B0E0E82AF92A0A2B7D
:100CF0001B2BA5C0843009F49FC0823021F4EE2460
:100D0000FF24870105C0E114F1040105110519F460
:100D1000E0E0F0E096C0628173819FEF623879076E
:100D20000CF05BC022E83FEF261B370B2A31310560
:100D30002CF020E030E040E050E02AC0B801A701EC
:100D4000022E04C076956795579547950A94D2F779
:100D500081E090E0A0E0B0E004C0880F991FAA1FD6
:100D6000BB1F2A95D2F70197A109B1098E219F21B6
:100D7000A023B1230097A105B10521F081E090E007
:100D8000A0E0B0E09A01AB01282B392B4A2B5B2B5A
:100D9000DA01C9018F779070A070B070803491052E
:100DA000A105B10539F427FF09C0205C3F4F4F4F23
:100DB0005F4F04C0215C3F4F4F4F5F4FE0E0F0E0DA
:100DC0002030A0E03A07A0E04A07A0E45A0710F05C
:100DD000E1E0F0E079018A0127C06038710564F52F
:100DE000FB01E158FF4FD801C7018F779070A070C9
:100DF000B07080349105A105B10539F4E7FE0DC04E
:100E000080E490E0A0E0B0E004C08FE390E0A0E0D8
:100E1000B0E0E80EF91E0A1F1B1F17FF05C016954C
:100E20000795F794E794319687E016950795F79420
:100E3000E7948A95D1F705C0EE24FF248701EFEFF0
:100E4000F0E06E2F679566276795902F9F77D79470
:100E5000DD24D7948E2F8695492F462B582F5D2958
:100E6000B701CA011F910F91FF90EF90DF90089595
:100E7000FC01DB01408151812281622F6F7770E09C
:100E8000221F2227221F9381892F880F822B282F30
:100E900030E0991F9927991F11969C93119721155E
:100EA0003105A9F5411551056105710511F482E07F
:100EB00037C082E89FEF13969C938E9312979A0106
:100EC000AB0167E0220F331F441F551F6A95D1F70E
:100ED00083E08C930DC0220F331F441F551F1296C1
:100EE0008D919C911397019713969C938E931297D3
:100EF000203080E0380780E0480780E4580758F346
:100F000014962D933D934D935C93179708952F3F1F
:100F1000310579F4411551056105710519F484E035
:100F20008C93089564FF03C081E08C9312C01C92DF
:100F300010C02F57304013963C932E93129783E0A6
:100F40008C9387E0440F551F661F771F8A95D1F752
:100F5000706414964D935D936D937C9317970895E9
:100F60001F93DC01FB019C91923008F447C0808103
:100F7000823008F443C0943051F411961C918430AF
:100F800099F58181682F70E0611B71093FC0843041
:100F900021F0923031F48230B9F18181882389F1D6
:100FA0002DC011961C9111978230F1F08181181794
:100FB000D9F412962D913C911397828193818217D7
:100FC000930794F028173907BCF014968D919D91E2
:100FD0000D90BC91A02D2481358146815781281721
:100FE00039074A075B0718F4112341F00AC082173A
:100FF0009307A407B50740F4112319F061E070E0EE
:1010000005C06FEF7FEF02C060E070E0CB011F9181
:1010100008952F923F924F925F926F927F928F929C
:101020009F92AF92BF92CF92DF92EF92FF920F9377
:101030001F93CF93DF93CDB7DEB7CA1BDB0B0FB681
:10104000F894DEBF0FBECDBF09942A88398848883E
:101050005F846E847D848C849B84AA84B984C884D4
:10106000DF80EE80FD800C811B81AA81B981CE0FCB
:10107000D11D0FB6F894DEBF0FBECDBFED010895B0
:04108000F894FFCF12
:101084003F065B4F666D7D077F6F777C3979736FA1
:0E10940074383F736D3E000000000000000045
:00000001FF
