:100000000C9434000C943E000C943E000C943E0082
:100010000C943E000C943E000C943E000C943E0068
:100020000C943E000C943E000C943E000C943E0058
:100030000C943E000C943E000C943E000C943E0048
:100040000C943E000C943E000C943E000C943E0038
:100050000C943E000C943E000C943E000C943E0028
:100060000C943E000C943E0011241FBECFEFD8E04C
:10007000DEBFCDBF0E946E000C94A8000C9400005F
:10008000DF93CF9300D0CDB7DEB78A83E0E8F0E00E
:100090001082E1E8F0E083E08083198216C0E4E892
:1000A000F0E086E997EE91838083E6E3F0E08081DB
:1000B000882F90E0817090700097B9F3E6E3F0E04C
:1000C00081E0808389818F5F898399818A819817F4
:1000D00030F30F900F90CF91DF910895DF93CF937E
:1000E000CDB7DEB7A4E2B0E0E4E2F0E08081846066
:1000F0008C93E0E8F0E088E08083E1E8F0E083E0E2
:100100008083E8E8F0E080E29EE491838083E4E885
:10011000F0E011821082E6E3F0E08081882F90E029
:10012000827090700097B9F3A5E2B0E0E5E2F0E0EC
:10013000908184E089278C93E4E8F0E011821082BA
:10014000A6E3B0E0E6E3F0E0808182608C93E3CF49
:04015000F894FFCF51
:00000001FF
