:100000000C9434000C943E000C943E000C943E0082
:100010000C943E000C943E000C943E000C943E0068
:100020000C943E000C943E000C943E000C943E0058
:100030000C943E000C943E000C943E000C943E0048
:100040000C943E000C943E000C943E000C943E0038
:100050000C943E000C943E000C943E000C943E0028
:100060000C943E000C943E0011241FBECFEFD8E04C
:10007000DEBFCDBF0E9440000C946B000C940000CA
:10008000DF93CF93CDB7DEB7A4E2B0E0E4E2F0E0D7
:1000900080818C618C93A4E2B0E0E4E2F0E08081A6
:1000A0008E7F8C93E3E2F0E08081882F90E0817076
:1000B0009070009741F4A5E2B0E0E5E2F0E08081C5
:1000C0008C618C93EFCFA5E2B0E0E5E2F0E08081B7
:0A00D000837E8C93E7CFF894FFCFF6
:00000001FF
