:100000000C9434000C943E000C943E000C943E0082
:100010000C943E000C943E000C943E000C943E0068
:100020000C943E000C943E000C943E000C943E0058
:100030000C943E000C943E000C943E000C943E0048
:100040000C943E000C943E000C943E000C943E0038
:100050000C943E000C943E000C943E000C943E0028
:100060000C943E000C943E0011241FBECFEFD8E04C
:10007000DEBFCDBF0E9440000C9498000C9400009D
:10008000DF93CF93CDB7DEB7A4E2B0E0E4E2F0E0D7
:10009000808184608C93A4E2B0E0E4E2F0E08081AF
:1000A00088608C93A4E2B0E0E4E2F0E080818061BB
:1000B0008C93A4E2B0E0E4E2F0E080818E7F8C9348
:1000C000A4E2B0E0E4E2F0E080818D7F8C93E3E293
:1000D000F0E08081882F90E081709070009741F46B
:1000E000A5E2B0E0E5E2F0E0808188618C9307C092
:1000F000A5E2B0E0E5E2F0E08081877E8C93E3E268
:10010000F0E08081882F90E082709070009741F439
:10011000A5E2B0E0E5E2F0E0808184608C93D7CF87
:10012000A5E2B0E0E5E2F0E080818B7F8C93CFCF59
:04013000F894FFCF71
:00000001FF
